:040000007DEF3FF061
:107EFA000001C1EF3FF0C580C5A01200FDD7C584BF
:107F0A00C5A41200FDD7C582C5A21200FDD7036E13
:107F1A0080EC3FF00350FE0BC96E9E969EA6FED7DC
:107F2A0001C0C9FF9E969EA6FED702C0C9FF9E96B3
:107F3A009EA6FED79E9684EC3FF01200026E80EC5D
:107F4A003FF00250FE0BC96E9E969EA6FED701C058
:107F5A00C9FF9E969EA6FED788EC3FF00250010903
:107F6A00C96E9E969EA6FED7C5869E969EA6FED7EB
:107F7A0084EC3FF0C9501200000E956E000E8C6E14
:107F8A00280EC66E000EC56EC00EC76E020EC86EF3
:107F9A00000E9E6E000E066E06C001F006500A0F15
:107FAA00026EA00E8CEC3FF0020E056E450E046EBA
:107FBA00AA0EE82EFED7042EFCD7052EFAD7062ADB
:107FCA00090E0664E9D7000E066E06C001F0A00E7F
:107FDA00A3EC3FF08C6E020E056E450E046EAA0EDF
:107FEA00E82EFED7042EFCD7052EFAD7062A090E4C
:067FFA000664EBD7CFD7AF
:020000040020DA
:08000000FFFFFFFFFFFFFFFF00
:020000040030CA
:0E00000000091F1EFF8185FF0FC00FE00F409B
:00000001FF
